{
  "contractName": "Syllabus",
  "abi": [
    {
      "anonymous": false,
      "inputs": [
        {
          "indexed": true,
          "internalType": "address",
          "name": "previousOwner",
          "type": "address"
        },
        {
          "indexed": true,
          "internalType": "address",
          "name": "newOwner",
          "type": "address"
        }
      ],
      "name": "OwnershipTransferred",
      "type": "event"
    },
    {
      "anonymous": false,
      "inputs": [
        {
          "indexed": true,
          "internalType": "string",
          "name": "SyllabusName",
          "type": "string"
        },
        {
          "indexed": true,
          "internalType": "uint16",
          "name": "currenteIndex",
          "type": "uint16"
        }
      ],
      "name": "SyllabusRepeated",
      "type": "event"
    },
    {
      "inputs": [],
      "name": "getOwner",
      "outputs": [
        {
          "internalType": "address",
          "name": "",
          "type": "address"
        }
      ],
      "stateMutability": "view",
      "type": "function",
      "constant": true
    },
    {
      "inputs": [
        {
          "internalType": "address",
          "name": "newOwner",
          "type": "address"
        }
      ],
      "name": "transferOwnership",
      "outputs": [],
      "stateMutability": "nonpayable",
      "type": "function"
    },
    {
      "inputs": [
        {
          "internalType": "string",
          "name": "inst",
          "type": "string"
        },
        {
          "components": [
            {
              "internalType": "string",
              "name": "name",
              "type": "string"
            },
            {
              "internalType": "string",
              "name": "carreer",
              "type": "string"
            }
          ],
          "internalType": "struct SyllabusHeader[]",
          "name": "syls",
          "type": "tuple[]"
        },
        {
          "components": [
            {
              "internalType": "string",
              "name": "id",
              "type": "string"
            },
            {
              "internalType": "string",
              "name": "name",
              "type": "string"
            }
          ],
          "internalType": "struct Subject[][]",
          "name": "sbjs",
          "type": "tuple[][]"
        }
      ],
      "name": "submitData",
      "outputs": [],
      "stateMutability": "payable",
      "type": "function",
      "payable": true
    },
    {
      "inputs": [],
      "name": "getSyllabusNames",
      "outputs": [
        {
          "internalType": "string[10]",
          "name": "mySyllNames",
          "type": "string[10]"
        }
      ],
      "stateMutability": "view",
      "type": "function",
      "constant": true
    },
    {
      "inputs": [
        {
          "internalType": "uint16",
          "name": "index",
          "type": "uint16"
        }
      ],
      "name": "getSyllabus",
      "outputs": [
        {
          "components": [
            {
              "internalType": "string",
              "name": "name",
              "type": "string"
            },
            {
              "internalType": "string",
              "name": "carreer",
              "type": "string"
            },
            {
              "components": [
                {
                  "internalType": "string",
                  "name": "id",
                  "type": "string"
                },
                {
                  "internalType": "string",
                  "name": "name",
                  "type": "string"
                }
              ],
              "internalType": "struct Subject[]",
              "name": "subjects",
              "type": "tuple[]"
            }
          ],
          "internalType": "struct Syllabus.SyllabusData",
          "name": "",
          "type": "tuple"
        }
      ],
      "stateMutability": "view",
      "type": "function",
      "constant": true
    },
    {
      "inputs": [
        {
          "internalType": "address",
          "name": "instId",
          "type": "address"
        },
        {
          "internalType": "uint16",
          "name": "index",
          "type": "uint16"
        }
      ],
      "name": "getInstitutionSyllabus",
      "outputs": [
        {
          "components": [
            {
              "internalType": "string",
              "name": "name",
              "type": "string"
            },
            {
              "internalType": "string",
              "name": "carreer",
              "type": "string"
            },
            {
              "components": [
                {
                  "internalType": "string",
                  "name": "id",
                  "type": "string"
                },
                {
                  "internalType": "string",
                  "name": "name",
                  "type": "string"
                }
              ],
              "internalType": "struct Subject[]",
              "name": "subjects",
              "type": "tuple[]"
            }
          ],
          "internalType": "struct Syllabus.SyllabusData",
          "name": "",
          "type": "tuple"
        }
      ],
      "stateMutability": "view",
      "type": "function",
      "constant": true
    },
    {
      "inputs": [
        {
          "internalType": "uint8",
          "name": "index",
          "type": "uint8"
        }
      ],
      "name": "getSyllabusName",
      "outputs": [
        {
          "internalType": "string",
          "name": "searchSyllabus",
          "type": "string"
        }
      ],
      "stateMutability": "view",
      "type": "function",
      "constant": true
    },
    {
      "inputs": [
        {
          "internalType": "uint16",
          "name": "syllabusIdx",
          "type": "uint16"
        },
        {
          "internalType": "uint16",
          "name": "subjectIdx",
          "type": "uint16"
        }
      ],
      "name": "getSubjectName",
      "outputs": [
        {
          "internalType": "string",
          "name": "",
          "type": "string"
        }
      ],
      "stateMutability": "view",
      "type": "function",
      "constant": true
    }
  ],
  "bytecode": "0x60a06040523373ffffffffffffffffffffffffffffffffffffffff1660809073ffffffffffffffffffffffffffffffffffffffff1660601b81525034801561004657600080fd5b50336000806101000a81548173ffffffffffffffffffffffffffffffffffffffff021916908373ffffffffffffffffffffffffffffffffffffffff16021790555060008054906101000a900473ffffffffffffffffffffffffffffffffffffffff1673ffffffffffffffffffffffffffffffffffffffff16600073ffffffffffffffffffffffffffffffffffffffff167f8be0079c531659141344cd1fd0a4f28419497f9722a3daafe3b4186f6b6457e060405160405180910390a360805160601c61270561011d600039600050506127056000f3fe60806040526004361061007b5760003560e01c8063cbcea1771161004e578063cbcea17714610150578063e7fc4fb31461016c578063f2fde38b146101a9578063fac471fd146101d25761007b565b80635ef0962514610080578063893d20e8146100bd578063c6aaeb52146100e8578063c99b664014610113575b600080fd5b34801561008c57600080fd5b506100a760048036038101906100a29190611cf7565b61020f565b6040516100b49190612284565b60405180910390f35b3480156100c957600080fd5b506100d261040b565b6040516100df9190612247565b60405180910390f35b3480156100f457600080fd5b506100fd610434565b60405161010a9190612262565b60405180910390f35b34801561011f57600080fd5b5061013a60048036038101906101359190611bfb565b6105cc565b6040516101479190612346565b60405180910390f35b61016a60048036038101906101659190611c37565b6109fb565b005b34801561017857600080fd5b50610193600480360381019061018e9190611cce565b610f23565b6040516101a09190612346565b60405180910390f35b3480156101b557600080fd5b506101d060048036038101906101cb9190611bd2565b611303565b005b3480156101de57600080fd5b506101f960048036038101906101f49190611d33565b611488565b6040516102069190612284565b60405180910390f35b606082600160003373ffffffffffffffffffffffffffffffffffffffff1673ffffffffffffffffffffffffffffffffffffffff168152602001908152602001600020600301805490508161ffff161061029d576040517f08c379a000000000000000000000000000000000000000000000000000000000815260040161029490612326565b60405180910390fd5b600160003373ffffffffffffffffffffffffffffffffffffffff1673ffffffffffffffffffffffffffffffffffffffff1681526020019081526020016000206003018461ffff168154811061031b577f4e487b7100000000000000000000000000000000000000000000000000000000600052603260045260246000fd5b90600052602060002090600302016002018361ffff1681548110610368577f4e487b7100000000000000000000000000000000000000000000000000000000600052603260045260246000fd5b906000526020600020906002020160010180546103849061258f565b80601f01602080910402602001604051908101604052809291908181526020018280546103b09061258f565b80156103fd5780601f106103d2576101008083540402835291602001916103fd565b820191906000526020600020905b8154815290600101906020018083116103e057829003601f168201915b505050505091505092915050565b60008060009054906101000a900473ffffffffffffffffffffffffffffffffffffffff16905090565b61043c6117b2565b6000600160003373ffffffffffffffffffffffffffffffffffffffff1673ffffffffffffffffffffffffffffffffffffffff168152602001908152602001600020905060005b81600301805490508161ffff1610156105c757816003018161ffff16815481106104d5577f4e487b7100000000000000000000000000000000000000000000000000000000600052603260045260246000fd5b906000526020600020906003020160000180546104f19061258f565b80601f016020809104026020016040519081016040528092919081815260200182805461051d9061258f565b801561056a5780601f1061053f5761010080835404028352916020019161056a565b820191906000526020600020905b81548152906001019060200180831161054d57829003601f168201915b5050505050838261ffff16600a81106105ac577f4e487b7100000000000000000000000000000000000000000000000000000000600052603260045260246000fd5b602002018190525080806105bf906125c1565b915050610482565b505090565b6105d46117da565b60008054906101000a900473ffffffffffffffffffffffffffffffffffffffff1673ffffffffffffffffffffffffffffffffffffffff163373ffffffffffffffffffffffffffffffffffffffff1614610662576040517f08c379a0000000000000000000000000000000000000000000000000000000008152600401610659906122a6565b60405180910390fd5b6000600160008573ffffffffffffffffffffffffffffffffffffffff1673ffffffffffffffffffffffffffffffffffffffff168152602001908152602001600020905080600301805490508361ffff16106106f2576040517f08c379a00000000000000000000000000000000000000000000000000000000081526004016106e9906122c6565b60405180910390fd5b806003018361ffff1681548110610732577f4e487b7100000000000000000000000000000000000000000000000000000000600052603260045260246000fd5b906000526020600020906003020160405180606001604052908160008201805461075b9061258f565b80601f01602080910402602001604051908101604052809291908181526020018280546107879061258f565b80156107d45780601f106107a9576101008083540402835291602001916107d4565b820191906000526020600020905b8154815290600101906020018083116107b757829003601f168201915b505050505081526020016001820180546107ed9061258f565b80601f01602080910402602001604051908101604052809291908181526020018280546108199061258f565b80156108665780601f1061083b57610100808354040283529160200191610866565b820191906000526020600020905b81548152906001019060200180831161084957829003601f168201915b5050505050815260200160028201805480602002602001604051908101604052809291908181526020016000905b828210156109ea57838290600052602060002090600202016040518060400160405290816000820180546108c79061258f565b80601f01602080910402602001604051908101604052809291908181526020018280546108f39061258f565b80156109405780601f1061091557610100808354040283529160200191610940565b820191906000526020600020905b81548152906001019060200180831161092357829003601f168201915b505050505081526020016001820180546109599061258f565b80601f01602080910402602001604051908101604052809291908181526020018280546109859061258f565b80156109d25780601f106109a7576101008083540402835291602001916109d2565b820191906000526020600020905b8154815290600101906020018083116109b557829003601f168201915b50505050508152505081526020019060010190610894565b505050508152505091505092915050565b6000600160003373ffffffffffffffffffffffffffffffffffffffff1673ffffffffffffffffffffffffffffffffffffffff1681526020019081526020016000209050600073ffffffffffffffffffffffffffffffffffffffff168160010160009054906101000a900473ffffffffffffffffffffffffffffffffffffffff1673ffffffffffffffffffffffffffffffffffffffff1614610bf25783604051602001610aa79190612219565b6040516020818303038152906040528051906020012081600201604051602001610ad19190612230565b6040516020818303038152906040528051906020012014610b27576040517f08c379a0000000000000000000000000000000000000000000000000000000008152600401610b1e906122e6565b60405180910390fd5b6040518060400160405280600381526020017f302e300000000000000000000000000000000000000000000000000000000000815250604051602001610b6d9190612219565b6040516020818303038152906040528051906020012081600001604051602001610b979190612230565b6040516020818303038152906040528051906020012014610bed576040517f08c379a0000000000000000000000000000000000000000000000000000000008152600401610be490612306565b60405180910390fd5b610c9d565b6040518060400160405280600381526020017f302e300000000000000000000000000000000000000000000000000000000000815250816000019080519060200190610c3f9291906117fb565b50338160010160006101000a81548173ffffffffffffffffffffffffffffffffffffffff021916908373ffffffffffffffffffffffffffffffffffffffff16021790555083816002019080519060200190610c9b9291906117fb565b505b60005b83518161ffff161015610f1c57610cfa848261ffff1681518110610ced577f4e487b7100000000000000000000000000000000000000000000000000000000600052603260045260246000fd5b602002602001015161163e565b610d0357610f09565b6000826003016001816001815401808255809150500390600052602060002090600302019050848261ffff1681518110610d66577f4e487b7100000000000000000000000000000000000000000000000000000000600052603260045260246000fd5b602002602001015160000151816000019080519060200190610d899291906117fb565b50848261ffff1681518110610dc7577f4e487b7100000000000000000000000000000000000000000000000000000000600052603260045260246000fd5b602002602001015160200151816001019080519060200190610dea9291906117fb565b506000848361ffff1681518110610e2a577f4e487b7100000000000000000000000000000000000000000000000000000000600052603260045260246000fd5b6020026020010151905060005b81518161ffff161015610f055782600201828261ffff1681518110610e85577f4e487b7100000000000000000000000000000000000000000000000000000000600052603260045260246000fd5b602002602001015190806001815401808255809150506001900390600052602060002090600202016000909190919091506000820151816000019080519060200190610ed29291906117fb565b506020820151816001019080519060200190610eef9291906117fb565b5050508080610efd906125c1565b915050610e37565b5050505b8080610f14906125c1565b915050610ca0565b5050505050565b610f2b6117da565b81600160003373ffffffffffffffffffffffffffffffffffffffff1673ffffffffffffffffffffffffffffffffffffffff168152602001908152602001600020600301805490508161ffff1610610fb7576040517f08c379a0000000000000000000000000000000000000000000000000000000008152600401610fae90612326565b60405180910390fd5b6000600160003373ffffffffffffffffffffffffffffffffffffffff1673ffffffffffffffffffffffffffffffffffffffff1681526020019081526020016000209050806003018461ffff168154811061103a577f4e487b7100000000000000000000000000000000000000000000000000000000600052603260045260246000fd5b90600052602060002090600302016040518060600160405290816000820180546110639061258f565b80601f016020809104026020016040519081016040528092919081815260200182805461108f9061258f565b80156110dc5780601f106110b1576101008083540402835291602001916110dc565b820191906000526020600020905b8154815290600101906020018083116110bf57829003601f168201915b505050505081526020016001820180546110f59061258f565b80601f01602080910402602001604051908101604052809291908181526020018280546111219061258f565b801561116e5780601f106111435761010080835404028352916020019161116e565b820191906000526020600020905b81548152906001019060200180831161115157829003601f168201915b5050505050815260200160028201805480602002602001604051908101604052809291908181526020016000905b828210156112f257838290600052602060002090600202016040518060400160405290816000820180546111cf9061258f565b80601f01602080910402602001604051908101604052809291908181526020018280546111fb9061258f565b80156112485780601f1061121d57610100808354040283529160200191611248565b820191906000526020600020905b81548152906001019060200180831161122b57829003601f168201915b505050505081526020016001820180546112619061258f565b80601f016020809104026020016040519081016040528092919081815260200182805461128d9061258f565b80156112da5780601f106112af576101008083540402835291602001916112da565b820191906000526020600020905b8154815290600101906020018083116112bd57829003601f168201915b5050505050815250508152602001906001019061119c565b505050508152505092505050919050565b60008054906101000a900473ffffffffffffffffffffffffffffffffffffffff1673ffffffffffffffffffffffffffffffffffffffff163373ffffffffffffffffffffffffffffffffffffffff1614611391576040517f08c379a0000000000000000000000000000000000000000000000000000000008152600401611388906122a6565b60405180910390fd5b600073ffffffffffffffffffffffffffffffffffffffff168173ffffffffffffffffffffffffffffffffffffffff1614156113cb57600080fd5b8073ffffffffffffffffffffffffffffffffffffffff1660008054906101000a900473ffffffffffffffffffffffffffffffffffffffff1673ffffffffffffffffffffffffffffffffffffffff167f8be0079c531659141344cd1fd0a4f28419497f9722a3daafe3b4186f6b6457e060405160405180910390a3806000806101000a81548173ffffffffffffffffffffffffffffffffffffffff021916908373ffffffffffffffffffffffffffffffffffffffff16021790555050565b60608160ff16600160003373ffffffffffffffffffffffffffffffffffffffff1673ffffffffffffffffffffffffffffffffffffffff168152602001908152602001600020600301805490508161ffff1610611519576040517f08c379a000000000000000000000000000000000000000000000000000000000815260040161151090612326565b60405180910390fd5b6000600160003373ffffffffffffffffffffffffffffffffffffffff1673ffffffffffffffffffffffffffffffffffffffff1681526020019081526020016000209050806003018460ff168154811061159b577f4e487b7100000000000000000000000000000000000000000000000000000000600052603260045260246000fd5b906000526020600020906003020160000180546115b79061258f565b80601f01602080910402602001604051908101604052809291908181526020018280546115e39061258f565b80156116305780601f1061160557610100808354040283529160200191611630565b820191906000526020600020905b81548152906001019060200180831161161357829003601f168201915b505050505092505050919050565b600080600160003373ffffffffffffffffffffffffffffffffffffffff1673ffffffffffffffffffffffffffffffffffffffff168152602001908152602001600020600301905060005b81805490508161ffff1610156117a657818161ffff16815481106116d5577f4e487b7100000000000000000000000000000000000000000000000000000000600052603260045260246000fd5b90600052602060002090600302016000016040516020016116f69190612230565b6040516020818303038152906040528051906020012084600001516040516020016117219190612219565b604051602081830303815290604052805190602001201415611793578061ffff1684600001516040516117549190612219565b60405180910390207f0c07364c277c9618499b1e2e15db61adb06228f3cd2f311c3022b4e80a56d3b760405160405180910390a36000925050506117ad565b808061179e906125c1565b915050611688565b5060019150505b919050565b604051806101400160405280600a905b60608152602001906001900390816117c25790505090565b60405180606001604052806060815260200160608152602001606081525090565b8280546118079061258f565b90600052602060002090601f0160209004810192826118295760008555611870565b82601f1061184257805160ff1916838001178555611870565b82800160010185558215611870579182015b8281111561186f578251825591602001919060010190611854565b5b50905061187d9190611881565b5090565b5b8082111561189a576000816000905550600101611882565b5090565b60006118b16118ac84612399565b612368565b9050808382526020820190508260005b858110156118f157813585016118d78882611a32565b8452602084019350602083019250506001810190506118c1565b5050509392505050565b600061190e611909846123c5565b612368565b9050808382526020820190508260005b8581101561194e57813585016119348882611ab0565b84526020840193506020830192505060018101905061191e565b5050509392505050565b600061196b611966846123f1565b612368565b9050808382526020820190508260005b858110156119ab57813585016119918882611b2c565b84526020840193506020830192505060018101905061197b565b5050509392505050565b60006119c86119c38461241d565b612368565b9050828152602081018484840111156119e057600080fd5b6119eb84828561254d565b509392505050565b600081359050611a028161268a565b92915050565b600082601f830112611a1957600080fd5b8135611a2984826020860161189e565b91505092915050565b600082601f830112611a4357600080fd5b8135611a538482602086016118fb565b91505092915050565b600082601f830112611a6d57600080fd5b8135611a7d848260208601611958565b91505092915050565b600082601f830112611a9757600080fd5b8135611aa78482602086016119b5565b91505092915050565b600060408284031215611ac257600080fd5b611acc6040612368565b9050600082013567ffffffffffffffff811115611ae857600080fd5b611af484828501611a86565b600083015250602082013567ffffffffffffffff811115611b1457600080fd5b611b2084828501611a86565b60208301525092915050565b600060408284031215611b3e57600080fd5b611b486040612368565b9050600082013567ffffffffffffffff811115611b6457600080fd5b611b7084828501611a86565b600083015250602082013567ffffffffffffffff811115611b9057600080fd5b611b9c84828501611a86565b60208301525092915050565b600081359050611bb7816126a1565b92915050565b600081359050611bcc816126b8565b92915050565b600060208284031215611be457600080fd5b6000611bf2848285016119f3565b91505092915050565b60008060408385031215611c0e57600080fd5b6000611c1c858286016119f3565b9250506020611c2d85828601611ba8565b9150509250929050565b600080600060608486031215611c4c57600080fd5b600084013567ffffffffffffffff811115611c6657600080fd5b611c7286828701611a86565b935050602084013567ffffffffffffffff811115611c8f57600080fd5b611c9b86828701611a5c565b925050604084013567ffffffffffffffff811115611cb857600080fd5b611cc486828701611a08565b9150509250925092565b600060208284031215611ce057600080fd5b6000611cee84828501611ba8565b91505092915050565b60008060408385031215611d0a57600080fd5b6000611d1885828601611ba8565b9250506020611d2985828601611ba8565b9150509250929050565b600060208284031215611d4557600080fd5b6000611d5384828501611bbd565b91505092915050565b6000611d688383611e7d565b905092915050565b6000611d7c8383612177565b905092915050565b611d8d81612500565b82525050565b6000611d9e8261247c565b611da881856124b7565b935083602082028501611dba8561244d565b8060005b85811015611df65784840389528151611dd78582611d5c565b9450611de28361249d565b925060208a01995050600181019050611dbe565b50829750879550505050505092915050565b6000611e1382612487565b611e1d81856124c2565b935083602082028501611e2f85612457565b8060005b85811015611e6b5784840389528151611e4c8582611d70565b9450611e57836124aa565b925060208a01995050600181019050611e33565b50829750879550505050505092915050565b6000611e8882612492565b611e9281856124d3565b9350611ea281856020860161255c565b611eab81612679565b840191505092915050565b6000611ec182612492565b611ecb81856124e4565b9350611edb81856020860161255c565b611ee481612679565b840191505092915050565b6000611efa82612492565b611f0481856124f5565b9350611f1481856020860161255c565b80840191505092915050565b60008154611f2d8161258f565b611f3781866124f5565b94506001821660008114611f525760018114611f6357611f96565b60ff19831686528186019350611f96565b611f6c85612467565b60005b83811015611f8e57815481890152600182019150602081019050611f6f565b838801955050505b50505092915050565b6000611fac6022836124e4565b91507f4f6e6c79206f776e65722063616e2063616c6c20746869732066756e6374696f60008301527f6e2e0000000000000000000000000000000000000000000000000000000000006020830152604082019050919050565b6000612012602e836124e4565b91507f496e646578206f7574206f662072616e676520666f722073706563696669632060008301527f696e737469747574696f6e2049640000000000000000000000000000000000006020830152604082019050919050565b6000612078601f836124e4565b91507f57726f6e67206e616d6520666f72207468697320696e737469747574696f6e006000830152602082019050919050565b60006120b86045836124e4565b91507f54686973207472616e73616363696f6e2076657273696f6e206d65737361676560008301527f20697320646966666572656e742066726f6d207468652073747275637475726560208301527f20646174610000000000000000000000000000000000000000000000000000006040830152606082019050919050565b60006121446012836124e4565b91507f496e646578206f7574206f662072616e676500000000000000000000000000006000830152602082019050919050565b600060408301600083015184820360008601526121948282611e7d565b915050602083015184820360208601526121ae8282611e7d565b9150508091505092915050565b600060608301600083015184820360008601526121d88282611e7d565b915050602083015184820360208601526121f28282611e7d565b9150506040830151848203604086015261220c8282611e08565b9150508091505092915050565b60006122258284611eef565b915081905092915050565b600061223c8284611f20565b915081905092915050565b600060208201905061225c6000830184611d84565b92915050565b6000602082019050818103600083015261227c8184611d93565b905092915050565b6000602082019050818103600083015261229e8184611eb6565b905092915050565b600060208201905081810360008301526122bf81611f9f565b9050919050565b600060208201905081810360008301526122df81612005565b9050919050565b600060208201905081810360008301526122ff8161206b565b9050919050565b6000602082019050818103600083015261231f816120ab565b9050919050565b6000602082019050818103600083015261233f81612137565b9050919050565b6000602082019050818103600083015261236081846121bb565b905092915050565b6000604051905081810181811067ffffffffffffffff8211171561238f5761238e61264a565b5b8060405250919050565b600067ffffffffffffffff8211156123b4576123b361264a565b5b602082029050602081019050919050565b600067ffffffffffffffff8211156123e0576123df61264a565b5b602082029050602081019050919050565b600067ffffffffffffffff82111561240c5761240b61264a565b5b602082029050602081019050919050565b600067ffffffffffffffff8211156124385761243761264a565b5b601f19601f8301169050602081019050919050565b6000819050919050565b6000819050602082019050919050565b60008190508160005260206000209050919050565b6000600a9050919050565b600081519050919050565b600081519050919050565b6000602082019050919050565b6000602082019050919050565b600081905092915050565b600082825260208201905092915050565b600082825260208201905092915050565b600082825260208201905092915050565b600081905092915050565b600061250b82612520565b9050919050565b600061ffff82169050919050565b600073ffffffffffffffffffffffffffffffffffffffff82169050919050565b600060ff82169050919050565b82818337600083830152505050565b60005b8381101561257a57808201518184015260208101905061255f565b83811115612589576000848401525b50505050565b600060028204905060018216806125a757607f821691505b602082108114156125bb576125ba61261b565b5b50919050565b60006125cc82612512565b915061ffff8214156125e1576125e06125ec565b5b600182019050919050565b7f4e487b7100000000000000000000000000000000000000000000000000000000600052601160045260246000fd5b7f4e487b7100000000000000000000000000000000000000000000000000000000600052602260045260246000fd5b7f4e487b7100000000000000000000000000000000000000000000000000000000600052604160045260246000fd5b6000601f19601f8301169050919050565b61269381612500565b811461269e57600080fd5b50565b6126aa81612512565b81146126b557600080fd5b50565b6126c181612540565b81146126cc57600080fd5b5056fea2646970667358221220a16ce5ebb18c790a6fe12b5cf1740267200b00b308165c1bc274dec9e923825b64736f6c63430008000033",
  "immutableReferences": {},
  "source": "// SPDX-License-Identifier: GPL-3.0\r\npragma solidity ^0.8.0;\r\n\r\nabstract contract Ownable {\r\n\r\n  // Un contrato abstracto no puede ser deployado. Este se genera como base\r\n  //   para los contratos que lo implementen y adquieran su funcionalidad.\r\n  address payable private _owner;\r\n  \r\n  constructor() {\r\n    _owner = payable(msg.sender);\r\n    emit OwnershipTransferred( address(0), _owner );\r\n  }\r\n\r\n  function getOwner() public view returns(address) { return _owner; }\r\n  \r\n  event OwnershipTransferred( address indexed previousOwner,\r\n                              address indexed newOwner );    \r\n  modifier onlyOwner {\r\n    require( msg.sender == _owner,\r\n              \"Only owner can call this function.\"\r\n           );\r\n    _;\r\n  }\r\n  function transferOwnership( address newOwner) public onlyOwner {\r\n    require(newOwner != address(0));\r\n    emit OwnershipTransferred(_owner, newOwner);\r\n    _owner = payable(newOwner);\r\n  }\r\n}\r\n\r\n/** Estructuras globales para el pasaje de argumentos al contrato principal */\r\n  struct Subject {\r\n      string id;\r\n      string name;\r\n  }\r\n  struct SyllabusHeader {\r\n    string  name;\r\n    string  carreer;\r\n  }\r\n\r\n/**\r\n *  -- SYLLABUS -- Definicion del Contrato Principal\r\n *    Los planes de estudio le pertenecen a las universidades (instituciones)\r\n *    Son un conjunto de materias con su id y nombre, asociadas a una carrera.\r\n *    Se pueden agregar pero no modificar ni duplicar\r\n */\r\ncontract Syllabus is Ownable {\r\n\r\n  struct SyllabusData {\r\n    string  name;\r\n    string  carreer;\r\n    Subject[] subjects;\r\n  }\r\n  struct Institution {\r\n    string  vers;\r\n    address addr;\r\n    string  name;\r\n    SyllabusData[] syllabuses;\r\n  }\r\n  event SyllabusRepeated( string indexed SyllabusName,\r\n                          uint16 indexed currenteIndex );\r\n  modifier validIndex( uint16 index ) {\r\n    require( index < institutions[msg.sender].syllabuses.length,\r\n             \"Index out of range\" );\r\n    _;\r\n  }\r\n\r\n  mapping ( address => Institution ) institutions;\r\n  string constant   _version = \"0.0\";\r\n  address immutable _owner = msg.sender;\r\n\r\n  function isNewSyllabus( SyllabusHeader memory syllabus ) private returns (bool) {\r\n      SyllabusData[] storage ss = institutions[msg.sender].syllabuses;\r\n      for (uint16 idx = 0; idx < ss.length; idx++) {\r\n        if ( keccak256(abi.encodePacked(syllabus.name)) == keccak256(abi.encodePacked(ss[idx].name)) ) {\r\n          emit SyllabusRepeated( syllabus.name, idx );\r\n          return false;\r\n        }\r\n      }\r\n      return true;\r\n  }\r\n\r\n  function submitData( string memory inst , SyllabusHeader[] memory syls, Subject[][] memory sbjs ) public payable {\r\n\r\n      Institution storage i = institutions[msg.sender];\r\n      // bool newInstitution = false;\r\n      if( i.addr != address(0) ) {\r\n        require( keccak256(abi.encodePacked(i.name)) == keccak256(abi.encodePacked(inst)),\r\n                \"Wrong name for this institution\" );\r\n        require( keccak256(abi.encodePacked(i.vers)) == keccak256(abi.encodePacked(_version)),\r\n                \"This transaccion version message is different from the structure data\" );\r\n      } else {\r\n        i.vers = _version;\r\n        i.addr = msg.sender;\r\n        i.name = inst;\r\n      }\r\n      // Una vez que seteamos los datos de la institucion, pusheamos una nueva instancia (s) para\r\n      //   cada uno de los nuevos planes de estudio y cargamos sus datos\r\n      for (uint16 idx1 = 0; idx1 < syls.length; idx1++) {\r\n\r\n        if ( !isNewSyllabus(syls[idx1]) ) continue;\r\n\r\n        SyllabusData storage s = i.syllabuses.push();\r\n        s.name = syls[idx1].name;\r\n        s.carreer = syls[idx1].carreer;\r\n        // A continuacion obtenemos el primer array de array de materias (thisSyllabusSubjects) y lo\r\n        //    recorremos pusheando cada una de las materias al plan correspondiente referenciado por s\r\n        Subject[] memory thisSyllabusSubjects = sbjs[idx1];\r\n        for (uint16 idx2 = 0; idx2 < thisSyllabusSubjects.length; idx2++) {\r\n          s.subjects.push( thisSyllabusSubjects[idx2] );\r\n        }\r\n      }\r\n  }\r\n\r\n  function getSyllabusNames() public view\r\n    returns (string[10] memory mySyllNames) {\r\n      Institution storage i = institutions[msg.sender];\r\n      for (uint16 idx1 = 0; idx1 < i.syllabuses.length; idx1++){\r\n        mySyllNames[idx1] = i.syllabuses[idx1].name;\r\n      }\r\n  }\r\n\r\n  function getSyllabus( uint16 index ) public view validIndex( index )\r\n    returns (SyllabusData memory) {\r\n      Institution storage i = institutions[msg.sender];\r\n      return i.syllabuses[index];\r\n  }\r\n\r\n  function getInstitutionSyllabus( address instId, uint16 index ) public view onlyOwner()\r\n    returns (SyllabusData memory) {\r\n      Institution storage i = institutions[instId];\r\n      require( index < i.syllabuses.length,\r\n              \"Index out of range for specific institution Id\" );\r\n      return i.syllabuses[index];\r\n  }\r\n\r\n  // Estos metodos se pueden quitar para el deploy final\r\n  function getSyllabusName( uint8 index ) public view validIndex( index )\r\n    returns (string memory searchSyllabus) {\r\n      Institution storage i = institutions[msg.sender];\r\n      return i.syllabuses[index].name;\r\n  }\r\n\r\n  function getSubjectName( uint16 syllabusIdx, uint16 subjectIdx ) public view validIndex( syllabusIdx )\r\n    returns (string memory) {\r\n      return institutions[msg.sender].syllabuses[syllabusIdx].subjects[subjectIdx].name;\r\n  }\r\n}\r\n",
  "sourcePath": "C:\\src\\blockchain\\Proyecto\\cryptoactas\\contracts\\contracts\\Syllabus.sol",
  "compiler": {
    "name": "solc",
    "version": "0.8.0+commit.c7dfd78e.Emscripten.clang"
  },
  "schemaVersion": "3.4.3",
  "updatedAt": "2021-11-12T00:04:58.383Z",
  "networkType": "ethereum",
  "devdoc": {
    "kind": "dev",
    "methods": {},
    "version": 1
  },
  "userdoc": {
    "kind": "user",
    "methods": {},
    "notice": "-- SYLLABUS -- Definicion del Contrato Principal    Los planes de estudio le pertenecen a las universidades (instituciones)    Son un conjunto de materias con su id y nombre, asociadas a una carrera.    Se pueden agregar pero no modificar ni duplicar",
    "version": 1
  }
}