{
  "contractName": "Syllabus",
  "abi": [
    {
      "anonymous": false,
      "inputs": [
        {
          "indexed": true,
          "internalType": "address",
          "name": "previousOwner",
          "type": "address"
        },
        {
          "indexed": true,
          "internalType": "address",
          "name": "newOwner",
          "type": "address"
        }
      ],
      "name": "OwnershipTransferred",
      "type": "event"
    },
    {
      "anonymous": false,
      "inputs": [
        {
          "indexed": true,
          "internalType": "string",
          "name": "SyllabusName",
          "type": "string"
        },
        {
          "indexed": true,
          "internalType": "uint16",
          "name": "currenteIndex",
          "type": "uint16"
        }
      ],
      "name": "SyllabusRepeated",
      "type": "event"
    },
    {
      "inputs": [],
      "name": "_unEjemplo",
      "outputs": [
        {
          "internalType": "string",
          "name": "",
          "type": "string"
        }
      ],
      "stateMutability": "view",
      "type": "function",
      "constant": true
    },
    {
      "inputs": [],
      "name": "getOwner",
      "outputs": [
        {
          "internalType": "address",
          "name": "",
          "type": "address"
        }
      ],
      "stateMutability": "view",
      "type": "function",
      "constant": true
    },
    {
      "inputs": [
        {
          "internalType": "address",
          "name": "",
          "type": "address"
        }
      ],
      "name": "institutions",
      "outputs": [
        {
          "internalType": "string",
          "name": "vers",
          "type": "string"
        },
        {
          "internalType": "address",
          "name": "addr",
          "type": "address"
        },
        {
          "internalType": "string",
          "name": "name",
          "type": "string"
        }
      ],
      "stateMutability": "view",
      "type": "function",
      "constant": true
    },
    {
      "inputs": [
        {
          "internalType": "address",
          "name": "newOwner",
          "type": "address"
        }
      ],
      "name": "transferOwnership",
      "outputs": [],
      "stateMutability": "nonpayable",
      "type": "function"
    },
    {
      "inputs": [
        {
          "internalType": "string",
          "name": "inst",
          "type": "string"
        },
        {
          "components": [
            {
              "internalType": "string",
              "name": "name",
              "type": "string"
            },
            {
              "internalType": "string",
              "name": "carreer",
              "type": "string"
            }
          ],
          "internalType": "struct SyllabusHeader[]",
          "name": "syls",
          "type": "tuple[]"
        },
        {
          "components": [
            {
              "internalType": "string",
              "name": "id",
              "type": "string"
            },
            {
              "internalType": "string",
              "name": "name",
              "type": "string"
            }
          ],
          "internalType": "struct Subject[][]",
          "name": "sbjs",
          "type": "tuple[][]"
        }
      ],
      "name": "submitData",
      "outputs": [],
      "stateMutability": "payable",
      "type": "function",
      "payable": true
    },
    {
      "inputs": [],
      "name": "getSyllabusNames",
      "outputs": [
        {
          "internalType": "string[10]",
          "name": "mySyllNames",
          "type": "string[10]"
        }
      ],
      "stateMutability": "view",
      "type": "function",
      "constant": true
    },
    {
      "inputs": [
        {
          "internalType": "uint16",
          "name": "index",
          "type": "uint16"
        }
      ],
      "name": "getSyllabus",
      "outputs": [
        {
          "components": [
            {
              "internalType": "string",
              "name": "name",
              "type": "string"
            },
            {
              "internalType": "string",
              "name": "carreer",
              "type": "string"
            },
            {
              "components": [
                {
                  "internalType": "string",
                  "name": "id",
                  "type": "string"
                },
                {
                  "internalType": "string",
                  "name": "name",
                  "type": "string"
                }
              ],
              "internalType": "struct Subject[]",
              "name": "subjects",
              "type": "tuple[]"
            }
          ],
          "internalType": "struct Syllabus.SyllabusData",
          "name": "",
          "type": "tuple"
        }
      ],
      "stateMutability": "view",
      "type": "function",
      "constant": true
    },
    {
      "inputs": [
        {
          "internalType": "address",
          "name": "instId",
          "type": "address"
        },
        {
          "internalType": "uint16",
          "name": "index",
          "type": "uint16"
        }
      ],
      "name": "getInstitutionSyllabus",
      "outputs": [
        {
          "components": [
            {
              "internalType": "string",
              "name": "name",
              "type": "string"
            },
            {
              "internalType": "string",
              "name": "carreer",
              "type": "string"
            },
            {
              "components": [
                {
                  "internalType": "string",
                  "name": "id",
                  "type": "string"
                },
                {
                  "internalType": "string",
                  "name": "name",
                  "type": "string"
                }
              ],
              "internalType": "struct Subject[]",
              "name": "subjects",
              "type": "tuple[]"
            }
          ],
          "internalType": "struct Syllabus.SyllabusData",
          "name": "",
          "type": "tuple"
        }
      ],
      "stateMutability": "view",
      "type": "function",
      "constant": true
    },
    {
      "inputs": [
        {
          "internalType": "uint8",
          "name": "index",
          "type": "uint8"
        }
      ],
      "name": "getSyllabusName",
      "outputs": [
        {
          "internalType": "string",
          "name": "searchSyllabus",
          "type": "string"
        }
      ],
      "stateMutability": "view",
      "type": "function",
      "constant": true
    },
    {
      "inputs": [
        {
          "internalType": "uint16",
          "name": "syllabusIdx",
          "type": "uint16"
        },
        {
          "internalType": "uint16",
          "name": "subjectIdx",
          "type": "uint16"
        }
      ],
      "name": "getSubjectName",
      "outputs": [
        {
          "internalType": "string",
          "name": "",
          "type": "string"
        }
      ],
      "stateMutability": "view",
      "type": "function",
      "constant": true
    }
  ],
  "bytecode": "0x60a06040523373ffffffffffffffffffffffffffffffffffffffff1660809073ffffffffffffffffffffffffffffffffffffffff1660601b81525034801561004657600080fd5b50336000806101000a81548173ffffffffffffffffffffffffffffffffffffffff021916908373ffffffffffffffffffffffffffffffffffffffff16021790555060008054906101000a900473ffffffffffffffffffffffffffffffffffffffff1673ffffffffffffffffffffffffffffffffffffffff16600073ffffffffffffffffffffffffffffffffffffffff167f8be0079c531659141344cd1fd0a4f28419497f9722a3daafe3b4186f6b6457e060405160405180910390a360805160601c6128cd61011d600039600050506128cd6000f3fe6080604052600436106100915760003560e01c8063c99b664011610059578063c99b664014610193578063cbcea177146101d0578063e7fc4fb3146101ec578063f2fde38b14610229578063fac471fd1461025257610091565b806304ecb517146100965780635ef09625146100c1578063893d20e8146100fe578063b2d9767f14610129578063c6aaeb5214610168575b600080fd5b3480156100a257600080fd5b506100ab61028f565b6040516100b89190612407565b60405180910390f35b3480156100cd57600080fd5b506100e860048036038101906100e39190611e7a565b6102c8565b6040516100f59190612407565b60405180910390f35b34801561010a57600080fd5b506101136104c4565b60405161012091906123ca565b60405180910390f35b34801561013557600080fd5b50610150600480360381019061014b9190611d55565b6104ed565b60405161015f93929190612429565b60405180910390f35b34801561017457600080fd5b5061017d610647565b60405161018a91906123e5565b60405180910390f35b34801561019f57600080fd5b506101ba60048036038101906101b59190611d7e565b6107df565b6040516101c7919061250e565b60405180910390f35b6101ea60048036038101906101e59190611dba565b610c0e565b005b3480156101f857600080fd5b50610213600480360381019061020e9190611e51565b611136565b604051610220919061250e565b60405180910390f35b34801561023557600080fd5b50610250600480360381019061024b9190611d55565b611516565b005b34801561025e57600080fd5b5061027960048036038101906102749190611eb6565b61169b565b6040516102869190612407565b60405180910390f35b6040518060400160405280600a81526020017f556e61207072756562610000000000000000000000000000000000000000000081525081565b606082600160003373ffffffffffffffffffffffffffffffffffffffff1673ffffffffffffffffffffffffffffffffffffffff168152602001908152602001600020600301805490508161ffff1610610356576040517f08c379a000000000000000000000000000000000000000000000000000000000815260040161034d906124ee565b60405180910390fd5b600160003373ffffffffffffffffffffffffffffffffffffffff1673ffffffffffffffffffffffffffffffffffffffff1681526020019081526020016000206003018461ffff16815481106103d4577f4e487b7100000000000000000000000000000000000000000000000000000000600052603260045260246000fd5b90600052602060002090600302016002018361ffff1681548110610421577f4e487b7100000000000000000000000000000000000000000000000000000000600052603260045260246000fd5b9060005260206000209060020201600101805461043d90612757565b80601f016020809104026020016040519081016040528092919081815260200182805461046990612757565b80156104b65780601f1061048b576101008083540402835291602001916104b6565b820191906000526020600020905b81548152906001019060200180831161049957829003601f168201915b505050505091505092915050565b60008060009054906101000a900473ffffffffffffffffffffffffffffffffffffffff16905090565b600160205280600052604060002060009150905080600001805461051090612757565b80601f016020809104026020016040519081016040528092919081815260200182805461053c90612757565b80156105895780601f1061055e57610100808354040283529160200191610589565b820191906000526020600020905b81548152906001019060200180831161056c57829003601f168201915b5050505050908060010160009054906101000a900473ffffffffffffffffffffffffffffffffffffffff16908060020180546105c490612757565b80601f01602080910402602001604051908101604052809291908181526020018280546105f090612757565b801561063d5780601f106106125761010080835404028352916020019161063d565b820191906000526020600020905b81548152906001019060200180831161062057829003601f168201915b5050505050905083565b61064f611935565b6000600160003373ffffffffffffffffffffffffffffffffffffffff1673ffffffffffffffffffffffffffffffffffffffff168152602001908152602001600020905060005b81600301805490508161ffff1610156107da57816003018161ffff16815481106106e8577f4e487b7100000000000000000000000000000000000000000000000000000000600052603260045260246000fd5b9060005260206000209060030201600001805461070490612757565b80601f016020809104026020016040519081016040528092919081815260200182805461073090612757565b801561077d5780601f106107525761010080835404028352916020019161077d565b820191906000526020600020905b81548152906001019060200180831161076057829003601f168201915b5050505050838261ffff16600a81106107bf577f4e487b7100000000000000000000000000000000000000000000000000000000600052603260045260246000fd5b602002018190525080806107d290612789565b915050610695565b505090565b6107e761195d565b60008054906101000a900473ffffffffffffffffffffffffffffffffffffffff1673ffffffffffffffffffffffffffffffffffffffff163373ffffffffffffffffffffffffffffffffffffffff1614610875576040517f08c379a000000000000000000000000000000000000000000000000000000000815260040161086c9061246e565b60405180910390fd5b6000600160008573ffffffffffffffffffffffffffffffffffffffff1673ffffffffffffffffffffffffffffffffffffffff168152602001908152602001600020905080600301805490508361ffff1610610905576040517f08c379a00000000000000000000000000000000000000000000000000000000081526004016108fc9061248e565b60405180910390fd5b806003018361ffff1681548110610945577f4e487b7100000000000000000000000000000000000000000000000000000000600052603260045260246000fd5b906000526020600020906003020160405180606001604052908160008201805461096e90612757565b80601f016020809104026020016040519081016040528092919081815260200182805461099a90612757565b80156109e75780601f106109bc576101008083540402835291602001916109e7565b820191906000526020600020905b8154815290600101906020018083116109ca57829003601f168201915b50505050508152602001600182018054610a0090612757565b80601f0160208091040260200160405190810160405280929190818152602001828054610a2c90612757565b8015610a795780601f10610a4e57610100808354040283529160200191610a79565b820191906000526020600020905b815481529060010190602001808311610a5c57829003601f168201915b5050505050815260200160028201805480602002602001604051908101604052809291908181526020016000905b82821015610bfd5783829060005260206000209060020201604051806040016040529081600082018054610ada90612757565b80601f0160208091040260200160405190810160405280929190818152602001828054610b0690612757565b8015610b535780601f10610b2857610100808354040283529160200191610b53565b820191906000526020600020905b815481529060010190602001808311610b3657829003601f168201915b50505050508152602001600182018054610b6c90612757565b80601f0160208091040260200160405190810160405280929190818152602001828054610b9890612757565b8015610be55780601f10610bba57610100808354040283529160200191610be5565b820191906000526020600020905b815481529060010190602001808311610bc857829003601f168201915b50505050508152505081526020019060010190610aa7565b505050508152505091505092915050565b6000600160003373ffffffffffffffffffffffffffffffffffffffff1673ffffffffffffffffffffffffffffffffffffffff1681526020019081526020016000209050600073ffffffffffffffffffffffffffffffffffffffff168160010160009054906101000a900473ffffffffffffffffffffffffffffffffffffffff1673ffffffffffffffffffffffffffffffffffffffff1614610e055783604051602001610cba919061239c565b6040516020818303038152906040528051906020012081600201604051602001610ce491906123b3565b6040516020818303038152906040528051906020012014610d3a576040517f08c379a0000000000000000000000000000000000000000000000000000000008152600401610d31906124ae565b60405180910390fd5b6040518060400160405280600381526020017f302e300000000000000000000000000000000000000000000000000000000000815250604051602001610d80919061239c565b6040516020818303038152906040528051906020012081600001604051602001610daa91906123b3565b6040516020818303038152906040528051906020012014610e00576040517f08c379a0000000000000000000000000000000000000000000000000000000008152600401610df7906124ce565b60405180910390fd5b610eb0565b6040518060400160405280600381526020017f302e300000000000000000000000000000000000000000000000000000000000815250816000019080519060200190610e5292919061197e565b50338160010160006101000a81548173ffffffffffffffffffffffffffffffffffffffff021916908373ffffffffffffffffffffffffffffffffffffffff16021790555083816002019080519060200190610eae92919061197e565b505b60005b83518161ffff16101561112f57610f0d848261ffff1681518110610f00577f4e487b7100000000000000000000000000000000000000000000000000000000600052603260045260246000fd5b60200260200101516117c1565b610f165761111c565b6000826003016001816001815401808255809150500390600052602060002090600302019050848261ffff1681518110610f79577f4e487b7100000000000000000000000000000000000000000000000000000000600052603260045260246000fd5b602002602001015160000151816000019080519060200190610f9c92919061197e565b50848261ffff1681518110610fda577f4e487b7100000000000000000000000000000000000000000000000000000000600052603260045260246000fd5b602002602001015160200151816001019080519060200190610ffd92919061197e565b506000848361ffff168151811061103d577f4e487b7100000000000000000000000000000000000000000000000000000000600052603260045260246000fd5b6020026020010151905060005b81518161ffff1610156111185782600201828261ffff1681518110611098577f4e487b7100000000000000000000000000000000000000000000000000000000600052603260045260246000fd5b6020026020010151908060018154018082558091505060019003906000526020600020906002020160009091909190915060008201518160000190805190602001906110e592919061197e565b50602082015181600101908051906020019061110292919061197e565b505050808061111090612789565b91505061104a565b5050505b808061112790612789565b915050610eb3565b5050505050565b61113e61195d565b81600160003373ffffffffffffffffffffffffffffffffffffffff1673ffffffffffffffffffffffffffffffffffffffff168152602001908152602001600020600301805490508161ffff16106111ca576040517f08c379a00000000000000000000000000000000000000000000000000000000081526004016111c1906124ee565b60405180910390fd5b6000600160003373ffffffffffffffffffffffffffffffffffffffff1673ffffffffffffffffffffffffffffffffffffffff1681526020019081526020016000209050806003018461ffff168154811061124d577f4e487b7100000000000000000000000000000000000000000000000000000000600052603260045260246000fd5b906000526020600020906003020160405180606001604052908160008201805461127690612757565b80601f01602080910402602001604051908101604052809291908181526020018280546112a290612757565b80156112ef5780601f106112c4576101008083540402835291602001916112ef565b820191906000526020600020905b8154815290600101906020018083116112d257829003601f168201915b5050505050815260200160018201805461130890612757565b80601f016020809104026020016040519081016040528092919081815260200182805461133490612757565b80156113815780601f1061135657610100808354040283529160200191611381565b820191906000526020600020905b81548152906001019060200180831161136457829003601f168201915b5050505050815260200160028201805480602002602001604051908101604052809291908181526020016000905b8282101561150557838290600052602060002090600202016040518060400160405290816000820180546113e290612757565b80601f016020809104026020016040519081016040528092919081815260200182805461140e90612757565b801561145b5780601f106114305761010080835404028352916020019161145b565b820191906000526020600020905b81548152906001019060200180831161143e57829003601f168201915b5050505050815260200160018201805461147490612757565b80601f01602080910402602001604051908101604052809291908181526020018280546114a090612757565b80156114ed5780601f106114c2576101008083540402835291602001916114ed565b820191906000526020600020905b8154815290600101906020018083116114d057829003601f168201915b505050505081525050815260200190600101906113af565b505050508152505092505050919050565b60008054906101000a900473ffffffffffffffffffffffffffffffffffffffff1673ffffffffffffffffffffffffffffffffffffffff163373ffffffffffffffffffffffffffffffffffffffff16146115a4576040517f08c379a000000000000000000000000000000000000000000000000000000000815260040161159b9061246e565b60405180910390fd5b600073ffffffffffffffffffffffffffffffffffffffff168173ffffffffffffffffffffffffffffffffffffffff1614156115de57600080fd5b8073ffffffffffffffffffffffffffffffffffffffff1660008054906101000a900473ffffffffffffffffffffffffffffffffffffffff1673ffffffffffffffffffffffffffffffffffffffff167f8be0079c531659141344cd1fd0a4f28419497f9722a3daafe3b4186f6b6457e060405160405180910390a3806000806101000a81548173ffffffffffffffffffffffffffffffffffffffff021916908373ffffffffffffffffffffffffffffffffffffffff16021790555050565b60606000600160003373ffffffffffffffffffffffffffffffffffffffff1673ffffffffffffffffffffffffffffffffffffffff1681526020019081526020016000209050806003018360ff168154811061171f577f4e487b7100000000000000000000000000000000000000000000000000000000600052603260045260246000fd5b9060005260206000209060030201600001805461173b90612757565b80601f016020809104026020016040519081016040528092919081815260200182805461176790612757565b80156117b45780601f10611789576101008083540402835291602001916117b4565b820191906000526020600020905b81548152906001019060200180831161179757829003601f168201915b5050505050915050919050565b600080600160003373ffffffffffffffffffffffffffffffffffffffff1673ffffffffffffffffffffffffffffffffffffffff168152602001908152602001600020600301905060005b81805490508161ffff16101561192957818161ffff1681548110611858577f4e487b7100000000000000000000000000000000000000000000000000000000600052603260045260246000fd5b906000526020600020906003020160000160405160200161187991906123b3565b6040516020818303038152906040528051906020012084600001516040516020016118a4919061239c565b604051602081830303815290604052805190602001201415611916578061ffff1684600001516040516118d7919061239c565b60405180910390207f0c07364c277c9618499b1e2e15db61adb06228f3cd2f311c3022b4e80a56d3b760405160405180910390a3600092505050611930565b808061192190612789565b91505061180b565b5060019150505b919050565b604051806101400160405280600a905b60608152602001906001900390816119455790505090565b60405180606001604052806060815260200160608152602001606081525090565b82805461198a90612757565b90600052602060002090601f0160209004810192826119ac57600085556119f3565b82601f106119c557805160ff19168380011785556119f3565b828001600101855582156119f3579182015b828111156119f25782518255916020019190600101906119d7565b5b509050611a009190611a04565b5090565b5b80821115611a1d576000816000905550600101611a05565b5090565b6000611a34611a2f84612561565b612530565b9050808382526020820190508260005b85811015611a745781358501611a5a8882611bb5565b845260208401935060208301925050600181019050611a44565b5050509392505050565b6000611a91611a8c8461258d565b612530565b9050808382526020820190508260005b85811015611ad15781358501611ab78882611c33565b845260208401935060208301925050600181019050611aa1565b5050509392505050565b6000611aee611ae9846125b9565b612530565b9050808382526020820190508260005b85811015611b2e5781358501611b148882611caf565b845260208401935060208301925050600181019050611afe565b5050509392505050565b6000611b4b611b46846125e5565b612530565b905082815260208101848484011115611b6357600080fd5b611b6e848285612715565b509392505050565b600081359050611b8581612852565b92915050565b600082601f830112611b9c57600080fd5b8135611bac848260208601611a21565b91505092915050565b600082601f830112611bc657600080fd5b8135611bd6848260208601611a7e565b91505092915050565b600082601f830112611bf057600080fd5b8135611c00848260208601611adb565b91505092915050565b600082601f830112611c1a57600080fd5b8135611c2a848260208601611b38565b91505092915050565b600060408284031215611c4557600080fd5b611c4f6040612530565b9050600082013567ffffffffffffffff811115611c6b57600080fd5b611c7784828501611c09565b600083015250602082013567ffffffffffffffff811115611c9757600080fd5b611ca384828501611c09565b60208301525092915050565b600060408284031215611cc157600080fd5b611ccb6040612530565b9050600082013567ffffffffffffffff811115611ce757600080fd5b611cf384828501611c09565b600083015250602082013567ffffffffffffffff811115611d1357600080fd5b611d1f84828501611c09565b60208301525092915050565b600081359050611d3a81612869565b92915050565b600081359050611d4f81612880565b92915050565b600060208284031215611d6757600080fd5b6000611d7584828501611b76565b91505092915050565b60008060408385031215611d9157600080fd5b6000611d9f85828601611b76565b9250506020611db085828601611d2b565b9150509250929050565b600080600060608486031215611dcf57600080fd5b600084013567ffffffffffffffff811115611de957600080fd5b611df586828701611c09565b935050602084013567ffffffffffffffff811115611e1257600080fd5b611e1e86828701611bdf565b925050604084013567ffffffffffffffff811115611e3b57600080fd5b611e4786828701611b8b565b9150509250925092565b600060208284031215611e6357600080fd5b6000611e7184828501611d2b565b91505092915050565b60008060408385031215611e8d57600080fd5b6000611e9b85828601611d2b565b9250506020611eac85828601611d2b565b9150509250929050565b600060208284031215611ec857600080fd5b6000611ed684828501611d40565b91505092915050565b6000611eeb8383612000565b905092915050565b6000611eff83836122fa565b905092915050565b611f10816126c8565b82525050565b6000611f2182612644565b611f2b818561267f565b935083602082028501611f3d85612615565b8060005b85811015611f795784840389528151611f5a8582611edf565b9450611f6583612665565b925060208a01995050600181019050611f41565b50829750879550505050505092915050565b6000611f968261264f565b611fa0818561268a565b935083602082028501611fb28561261f565b8060005b85811015611fee5784840389528151611fcf8582611ef3565b9450611fda83612672565b925060208a01995050600181019050611fb6565b50829750879550505050505092915050565b600061200b8261265a565b612015818561269b565b9350612025818560208601612724565b61202e81612841565b840191505092915050565b60006120448261265a565b61204e81856126ac565b935061205e818560208601612724565b61206781612841565b840191505092915050565b600061207d8261265a565b61208781856126bd565b9350612097818560208601612724565b80840191505092915050565b600081546120b081612757565b6120ba81866126bd565b945060018216600081146120d557600181146120e657612119565b60ff19831686528186019350612119565b6120ef8561262f565b60005b83811015612111578154818901526001820191506020810190506120f2565b838801955050505b50505092915050565b600061212f6022836126ac565b91507f4f6e6c79206f776e65722063616e2063616c6c20746869732066756e6374696f60008301527f6e2e0000000000000000000000000000000000000000000000000000000000006020830152604082019050919050565b6000612195602e836126ac565b91507f496e646578206f7574206f662072616e676520666f722073706563696669632060008301527f696e737469747574696f6e2049640000000000000000000000000000000000006020830152604082019050919050565b60006121fb601f836126ac565b91507f57726f6e67206e616d6520666f72207468697320696e737469747574696f6e006000830152602082019050919050565b600061223b6045836126ac565b91507f54686973207472616e73616363696f6e2076657273696f6e206d65737361676560008301527f20697320646966666572656e742066726f6d207468652073747275637475726560208301527f20646174610000000000000000000000000000000000000000000000000000006040830152606082019050919050565b60006122c76012836126ac565b91507f496e646578206f7574206f662072616e676500000000000000000000000000006000830152602082019050919050565b600060408301600083015184820360008601526123178282612000565b915050602083015184820360208601526123318282612000565b9150508091505092915050565b6000606083016000830151848203600086015261235b8282612000565b915050602083015184820360208601526123758282612000565b9150506040830151848203604086015261238f8282611f8b565b9150508091505092915050565b60006123a88284612072565b915081905092915050565b60006123bf82846120a3565b915081905092915050565b60006020820190506123df6000830184611f07565b92915050565b600060208201905081810360008301526123ff8184611f16565b905092915050565b600060208201905081810360008301526124218184612039565b905092915050565b600060608201905081810360008301526124438186612039565b90506124526020830185611f07565b81810360408301526124648184612039565b9050949350505050565b6000602082019050818103600083015261248781612122565b9050919050565b600060208201905081810360008301526124a781612188565b9050919050565b600060208201905081810360008301526124c7816121ee565b9050919050565b600060208201905081810360008301526124e78161222e565b9050919050565b60006020820190508181036000830152612507816122ba565b9050919050565b60006020820190508181036000830152612528818461233e565b905092915050565b6000604051905081810181811067ffffffffffffffff8211171561255757612556612812565b5b8060405250919050565b600067ffffffffffffffff82111561257c5761257b612812565b5b602082029050602081019050919050565b600067ffffffffffffffff8211156125a8576125a7612812565b5b602082029050602081019050919050565b600067ffffffffffffffff8211156125d4576125d3612812565b5b602082029050602081019050919050565b600067ffffffffffffffff821115612600576125ff612812565b5b601f19601f8301169050602081019050919050565b6000819050919050565b6000819050602082019050919050565b60008190508160005260206000209050919050565b6000600a9050919050565b600081519050919050565b600081519050919050565b6000602082019050919050565b6000602082019050919050565b600081905092915050565b600082825260208201905092915050565b600082825260208201905092915050565b600082825260208201905092915050565b600081905092915050565b60006126d3826126e8565b9050919050565b600061ffff82169050919050565b600073ffffffffffffffffffffffffffffffffffffffff82169050919050565b600060ff82169050919050565b82818337600083830152505050565b60005b83811015612742578082015181840152602081019050612727565b83811115612751576000848401525b50505050565b6000600282049050600182168061276f57607f821691505b60208210811415612783576127826127e3565b5b50919050565b6000612794826126da565b915061ffff8214156127a9576127a86127b4565b5b600182019050919050565b7f4e487b7100000000000000000000000000000000000000000000000000000000600052601160045260246000fd5b7f4e487b7100000000000000000000000000000000000000000000000000000000600052602260045260246000fd5b7f4e487b7100000000000000000000000000000000000000000000000000000000600052604160045260246000fd5b6000601f19601f8301169050919050565b61285b816126c8565b811461286657600080fd5b50565b612872816126da565b811461287d57600080fd5b50565b61288981612708565b811461289457600080fd5b5056fea264697066735822122007e855a6157622c12acd3871b88e1a170971346386fd095da476575ac7748dae64736f6c63430008000033",
  "immutableReferences": {},
  "source": "// SPDX-License-Identifier: GPL-3.0\r\npragma solidity ^0.8.0;\r\n\r\nabstract contract Ownable {\r\n\r\n  // Un contrato abstracto no puede ser deployado. Este se genera como base\r\n  //   para los contratos que lo implementen y adquieran su funcionalidad.\r\n  address payable private _owner;\r\n  \r\n  constructor() {\r\n    _owner = payable(msg.sender);\r\n    emit OwnershipTransferred( address(0), _owner );\r\n  }\r\n\r\n  function getOwner() public view returns(address) { return _owner; }\r\n  \r\n  event OwnershipTransferred( address indexed previousOwner,\r\n                              address indexed newOwner );    \r\n  modifier onlyOwner {\r\n    require( msg.sender == _owner,\r\n              \"Only owner can call this function.\"\r\n           );\r\n    _;\r\n  }\r\n  function transferOwnership( address newOwner) public onlyOwner {\r\n    require(newOwner != address(0));\r\n    emit OwnershipTransferred(_owner, newOwner);\r\n    _owner = payable(newOwner);\r\n  }\r\n}\r\n\r\n/** Estructuras globales para el pasaje de argumentos al contrato principal */\r\n  struct Subject {\r\n      string id;\r\n      string name;\r\n  }\r\n  struct SyllabusHeader {\r\n    string  name;\r\n    string  carreer;\r\n  }\r\n\r\n/**\r\n *  -- SYLLABUS -- Definicion del Contrato Principal\r\n *    Los planes de estudio le pertenecen a las universidades (instituciones)\r\n *    Son un conjunto de materias con su id y nombre, asociadas a una carrera.\r\n *    Se pueden agregar pero no modificar ni duplicar\r\n */\r\ncontract Syllabus is Ownable {\r\n\r\n  struct SyllabusData {\r\n    string  name;\r\n    string  carreer;\r\n    Subject[] subjects;\r\n  }\r\n  struct Institution {\r\n    string  vers;\r\n    address addr;\r\n    string  name;\r\n    SyllabusData[] syllabuses;\r\n  }\r\n  event SyllabusRepeated( string indexed SyllabusName,\r\n                          uint16 indexed currenteIndex );\r\n  modifier validIndex( uint16 index ) {\r\n    require( index < institutions[msg.sender].syllabuses.length,\r\n             \"Index out of range\" );\r\n    _;\r\n  }\r\n\r\n  mapping  ( address => Institution ) public institutions;\r\n  string constant   _version = \"0.0\";\r\n  string public constant   _unEjemplo = \"Una prueba\";\r\n  address immutable _owner = msg.sender;\r\n\r\n  function isNewSyllabus( SyllabusHeader memory syllabus ) private returns (bool) {\r\n      SyllabusData[] storage ss = institutions[msg.sender].syllabuses;\r\n      for (uint16 idx = 0; idx < ss.length; idx++) {\r\n        if ( keccak256(abi.encodePacked(syllabus.name)) == keccak256(abi.encodePacked(ss[idx].name)) ) {\r\n          emit SyllabusRepeated( syllabus.name, idx );\r\n          return false;\r\n        }\r\n      }\r\n      return true;\r\n  }\r\n\r\n  function submitData( string memory inst , SyllabusHeader[] memory syls, Subject[][] memory sbjs ) public payable {\r\n\r\n      Institution storage i = institutions[msg.sender];\r\n      // bool newInstitution = false;\r\n      if( i.addr != address(0) ) {\r\n        require( keccak256(abi.encodePacked(i.name)) == keccak256(abi.encodePacked(inst)),\r\n                \"Wrong name for this institution\" );\r\n        require( keccak256(abi.encodePacked(i.vers)) == keccak256(abi.encodePacked(_version)),\r\n                \"This transaccion version message is different from the structure data\" );\r\n      } else {\r\n        i.vers = _version;\r\n        i.addr = msg.sender;\r\n        i.name = inst;\r\n      }\r\n      // Una vez que seteamos los datos de la institucion, pusheamos una nueva instancia (s) para\r\n      //   cada uno de los nuevos planes de estudio y cargamos sus datos\r\n      for (uint16 idx1 = 0; idx1 < syls.length; idx1++) {\r\n\r\n        if ( !isNewSyllabus(syls[idx1]) ) continue;\r\n\r\n        SyllabusData storage s = i.syllabuses.push();\r\n        s.name = syls[idx1].name;\r\n        s.carreer = syls[idx1].carreer;\r\n        // A continuacion obtenemos el primer array de array de materias (thisSyllabusSubjects) y lo\r\n        //    recorremos pusheando cada una de las materias al plan correspondiente referenciado por s\r\n        Subject[] memory thisSyllabusSubjects = sbjs[idx1];\r\n        for (uint16 idx2 = 0; idx2 < thisSyllabusSubjects.length; idx2++) {\r\n          s.subjects.push( thisSyllabusSubjects[idx2] );\r\n        }\r\n      }\r\n  }\r\n\r\n  function getSyllabusNames() public view\r\n    returns (string[10] memory mySyllNames) {\r\n      Institution storage i = institutions[msg.sender];\r\n      for (uint16 idx1 = 0; idx1 < i.syllabuses.length; idx1++){\r\n        mySyllNames[idx1] = i.syllabuses[idx1].name;\r\n      }\r\n  }\r\n\r\n  function getSyllabus( uint16 index ) public view validIndex( index )\r\n    returns (SyllabusData memory) {\r\n      Institution storage i = institutions[msg.sender];\r\n      return i.syllabuses[index];\r\n  }\r\n\r\n  function getInstitutionSyllabus( address instId, uint16 index ) public view onlyOwner()\r\n    returns (SyllabusData memory) {\r\n      Institution storage i = institutions[instId];\r\n      require( index < i.syllabuses.length,\r\n              \"Index out of range for specific institution Id\" );\r\n      return i.syllabuses[index];\r\n  }\r\n\r\n  // Estos metodos se pueden quitar para el deploy final\r\n  // validIndex( index )\r\n  function getSyllabusName( uint8 index ) public view \r\n    returns (string memory searchSyllabus) {\r\n      Institution storage i = institutions[msg.sender];\r\n      return i.syllabuses[index].name;\r\n  }\r\n\r\n  function getSubjectName( uint16 syllabusIdx, uint16 subjectIdx ) public view validIndex( syllabusIdx )\r\n    returns (string memory) {\r\n      return institutions[msg.sender].syllabuses[syllabusIdx].subjects[subjectIdx].name;\r\n  }\r\n}\r\n",
  "sourcePath": "C:\\src\\blockchain\\Proyecto\\cryptoactas\\contracts\\contracts\\Syllabus.sol",
  "compiler": {
    "name": "solc",
    "version": "0.8.0+commit.c7dfd78e.Emscripten.clang"
  },
  "schemaVersion": "3.4.3",
  "updatedAt": "2021-11-12T03:27:11.643Z",
  "networkType": "ethereum",
  "devdoc": {
    "kind": "dev",
    "methods": {},
    "version": 1
  },
  "userdoc": {
    "kind": "user",
    "methods": {},
    "notice": "-- SYLLABUS -- Definicion del Contrato Principal    Los planes de estudio le pertenecen a las universidades (instituciones)    Son un conjunto de materias con su id y nombre, asociadas a una carrera.    Se pueden agregar pero no modificar ni duplicar",
    "version": 1
  }
}